:100000000C94FB010C9423020C9423020C94230205
:100010000C9423020C9423020C9423020C942302CC
:100020000C9423020C9423020C9423020C94DD0EF6
:100030000C9423020C9423020C9423020C942302AC
:100040000C94930E0C9423020C9423020C94230220
:100050000C9423020C9423020C9423020C9423028C
:100060000C9423020C9423020101FF030101F70306
:100070006C00680000000000240027002A00000037
:100080000000250028002B000500893008023802F6
:1000900049786814000053706163655F496E76614A
:1000A000646572730008083C7EFF7E3C3C181808AB
:1000B0000818DB99BDFF3C3C18080818BDFFFF99E4
:1000C000183C1808032070F8537061636520496E6E
:1000D00076616465727300537061636520496E7662
:1000E00061646572730005003801680100001753F0
:1000F0004400161378001613140015102000152064
:100100001000540A03E181867F3E186D830F0F0EA5
:100110000183866033186DC3198F1803C38E603353
:10012000186DE330CF1803C39E603630CDE360CF47
:100130003006C79E7E3E30CDB360CF300CC6F66031
:100140003330D9B660CF33CFCCF66061B0DB1E6000
:10015000CF30D86CE6C061B0DB1E618F19986CC6D9
:10016000C063B19B0E330F0FB078C6FF7E1F1B0616
:100170001E0F0A0A153A49676E6F7265006D560ABE
:100180000A504C45415345205455524E204F464647
:1001900020004C4F572042415454455259212000D1
:1001A00003053F213F1208120A100A0E1C0E0C1EF6
:1001B0000C141A14161F161E131E1E1B1E1E1F1EA5
:1001C0003F213F3A2F3A173D173F213F181F0204A6
:1001D0000A041F0E04040E1F0A1F0A0E0E1F04112C
:1001E0000E2E252E2F2A2E262929021F02081F082F
:1001F000150E04040E150E15151B151B040604041C
:100200000C040000000017000300031F0A1F16372C
:100210001A1904130A153A000300000E11110E00FA
:100220000A040A040E04003000040404001000183C
:1002300004031F111F121F101D151711151F07048E
:100240001F17151D1F151D01011F1F151F17151F36
:10025000000A00003200040A110A0A0A110A040105
:1002600015020E11171E051E1F150A0E110A1F1169
:100270000E1F15111F05010E111D1F041F111F1147
:1002800008100F1F041B1F10101F061F1E040F0E47
:10029000110E1F09060E112E1F051A121509011F36
:1002A000011F101F0F180F1F0C1F1B041B031C0323
:1002B000191513001F11030418111F000201022059
:1002C00020200001020C121E1F120C0C12120C1224
:1002D0001F0C1A14041E05242A1E1F021C141D10B4
:1002E00020201D1F0814111F101E041E1E021C0CAE
:1002F000120C3E0A040C123E1E040214160A020FCF
:10030000120E101E0E100E1E081E120C1226281E93
:10031000322A26041E21001F00211E040102013F73
:10032000213FF6E8DBCFC3B8AEA49B928A827B74F0
:100330006E68625C57524E4945413E3A3734312E21
:100340002C2927252321450068010000172B1520A3
:1003500010204C4F4144455200172B162013140017
:100360000A4E6F2053442063617264206F720A6EDC
:100370006F204C4F414445522E4845580A0A153AC1
:1003800045786974001D20466C617368696E670A60
:1003900020206C6F616465722E2E2E0A0A444F4E27
:1003A0002754205455524E204F464621000000004D
:1003B00000230026002900040404040404040402A9
:1003C00002020202020303030303030102040810F2
:1003D00020408001020408102001020408102000BF
:1003E00000000800020100000304070000000000F4
:1003F00000000000511511241FBECFEFD8E0DEBF72
:10040000CDBF11E0A0E0B1E0E2EBFFE202C0059059
:100410000D92AE32B107D9F724E0AEE2B1E001C0EF
:100420001D92A434B207E1F711E0CBEFD1E004C094
:100430002197FE010E94D117CA3FD107C9F70E9438
:100440001E0F0C94D7170C94000090E0880F991F92
:10045000E091F103F091F203E80FF91F2591349137
:100460003093020420930104F901859194919091B5
:10047000E603989F802D112480930304F901659170
:100480007491472F50E08417150629F020F0F901E8
:1004900025913491832F989F802D112480930404FB
:1004A0000895AF92BF92CF92DF92EF92FF920F9397
:1004B0001F93CF93DF936C017B018B01040F151FFA
:1004C000EB015E01AE18BF08C017D10759F0699162
:1004D000D601ED91FC910190F081E02DC6010995C6
:1004E000892B79F7C501DF91CF911F910F91FF9073
:1004F000EF90DF90CF90BF90AF900895833081F060
:1005000028F4813099F08230A9F008958730A9F05D
:100510008830C9F08430B1F4809180008F7D03C0B1
:10052000809180008F7780938000089584B58F77C5
:1005300084BD089584B58F7DFBCF8091B0008F7707
:100540008093B00008958091B0008F7DF9CF1F9304
:10055000CF93DF93282F30E0F901E152FC4F8491D3
:10056000F901E553FC4FD491F901E954FC4FC491D2
:10057000CC23A9F0162F81110E947E02EC2FF0E00F
:10058000EE0FFF1FE258FF4FA591B4918FB7F8947B
:10059000EC91111108C0D095DE23DC938FBFDF9161
:1005A000CF911F910895DE2BF8CFCF93C82FF894E9
:1005B00060E080911A040E94A70280911B04181623
:1005C0001CF460E00E94A702CEBD00000DB407FE3F
:1005D000FDCF8EB580911B0418161CF461E00E94BB
:1005E000A7027894CF9108950F931F93CF93809192
:1005F00017048F5F809317040DEB11E0C0E08C2F80
:1006000080640E94D50280E80E94D50261E080915A
:100610001A040E94A70280911B0418161CF460E0C3
:100620000E94A702F80184E591919EBD00000DB4DF
:1006300007FEFDCF9EB58150B9F780911B041816B7
:100640001CF461E00E94A702CF5F0C5A1F4FC63016
:10065000B1F680E4CF911F910F910C94D502CF9306
:10066000DF9390E0FC01E553FC4F249189549C4FAB
:10067000FC0184918823C9F090E0880F991FFC0148
:10068000EC58FF4FA591B491FC01E258FF4FC59182
:10069000D49161110DC09FB7F8948C91209582235D
:1006A0008C938881282328839FBFDF91CF91089561
:1006B000623051F49FB7F8943C91822F8095832348
:1006C0008C93E8812E2BEFCF8FB7F894EC912E2BE3
:1006D0002C938FBFEACFFF920F931F93CF93DF939B
:1006E000CDEBD3E0FF24FA9462E08A850E942F03C9
:1006F0002A8530E0F901E152FC4F8491F901E5537C
:10070000FC4F0491F901E954FC4F14911123E1F0DD
:1007100081110E947E02E12FF0E0EE0FFF1FE355F2
:10072000FC4FA591B491EC9189890E2369F0811158
:1007300013C0219683E0C43CD807B1F6DF91CF9176
:100740001F910F91FF90089589898F5F898B60E0D9
:100750008A850E942F03EDCF8F3F11F4198AF7CFBE
:10076000F98AF5CF1F93CF93DF93182FEB0161E048
:100770000E942F03209739F460E0812FDF91CF9101
:100780001F910C94A702CF3FD10511F461E0F5CF82
:10079000E12FF0E0E152FC4FE491E33031F140F41D
:1007A000E130B1F0E230E1F0C038D1057CF7E4CFC0
:1007B000E73029F1E83059F1E430B1F78091800059
:1007C000806280938000D0938B00C0938A0004C025
:1007D00084B5806884BDC7BDDF91CF911F91089516
:1007E00084B5806284BDC8BDF7CF809180008068E9
:1007F00080938000D0938900C0938800EDCF8091D2
:10080000B00080688093B000C093B300E5CF8091C2
:10081000B00080628093B000C093B400DDCF8E50F2
:10082000806480937C0080917A00806480937A0059
:1008300080917A0086FDFCCF8091780090917900BC
:1008400008958091E1038F7149F584E10E940F04BE
:10085000BC01990F880B990B0E94941626EE3FE37A
:100860004EEC50E40E94F8160E9463169B017093B0
:10087000D8036093D703672BB9F084E08093D60345
:10088000E9EDF3E080E0419151912417350718F428
:100890008093D60308958F5F8430A9F78091E10398
:1008A0008F5F8093E10308958FEF8093D603F6CF97
:1008B0003FB7F8948091300190913101A0913201BD
:1008C000B091330126B5A89B05C02F3F19F00196C2
:1008D000A11DB11D3FBFBA2FA92F982F8827BC019A
:1008E000CD01620F711D811D911D42E0660F771FC2
:1008F000881F991F4A95D1F708958F929F92AF92C2
:10090000BF92CF92DF92EF92FF924B015C010E9467
:1009100058046B017C010E9458046C197D098E09F2
:100920009F09683E734081059105A8F321E0821A72
:100930009108A108B10888EEC80E83E0D81EE11C1A
:10094000F11C81149104A104B10429F7FF90EF90E8
:10095000DF90CF90BF90AF909F908F900895FC0153
:10096000178A158A14A213A2108E1092B401109245
:10097000B5011092B8011092B40008950F931F931F
:10098000CF93DF93EC018B010E94AF041E870D878C
:100990001B8A1A8A81E0898389E08E8B198E1B8ECF
:1009A0001D8EDF91CF911F910F910895E091EB0380
:1009B0008E2F90E0880F991FE091E903F091EA03F0
:1009C000E80FF91F859194918F3F980719F41092C1
:1009D000E20308959093EE039927880F991FE09101
:1009E000EC03F091ED03E80FF91F6591749182EE2D
:1009F00093E00E94BE048091EB038F5F8093EB0332
:100A000008952F923F925F926F927F928F929F9262
:100A1000AF92BF92CF92DF92EF92FF920F931F930C
:100A2000CF93DF93EC01F901E49031968491643522
:100A30000CF015C10E2C000CFF08062F062E000C22
:100A4000110BF701E00FF11F1E161F060CF007C176
:100A500040330CF004C1A82FC42E042E000CDD0876
:100A60005601A80EB11C87FDBA941A141B040CF091
:100A7000F6C02E5F3F4F570197E0A90EB11CB7FE9D
:100A800004C05701BEE0AB0EB11CB3E0B594A7940F
:100A9000BA95E1F747FF0AC0A42FA80FAC9CC0018C
:100AA000AD9C900D1124281B390B40E08A2F0A2E93
:100AB000000C990B840F911D47FD9A95C19714F076
:100AC000A0E3A41BF8A067FD60E0E535F10514F094
:100AD000E4E5F0E09E2FCC85C427C62E062E000C40
:100AE000DD08F601E01BF10B8F014F01F7E08F22CB
:100AF0009924E0E8F0E002C0F595E7958A94E2F7E2
:100B00007E2F17FF02C0095F1F4FF3E01595079571
:100B1000FA95E1F7200F311F542F577081E001C083
:100B2000880F5A95EAF7459545954595F601B4E540
:100B30004B02E00DF11D1124AF0143545E4FD0E094
:100B40002A2EAA0F3308EE24E394BB24D2151304F3
:100B50000CF085C0F9015490F1E0FF121AC0962EF6
:100B60008A01E72F6901991608F057C08E2E85205B
:100B700021F0D8018C90882A8C92E69531F4BFEF51
:100B8000CB1ADB0AF6015490E0E893940F5F1F4FF5
:100B9000EACFF1101CC0782E7094962E8A01E72FB0
:100BA0006901991608F039C08E2E852021F0D801F0
:100BB0008C9087208C92E69531F4BFEFCB1ADB0A3C
:100BC000F6015490E0E893940F5F1F4FEACFF3E0F3
:100BD000FF122CC0782E7094862E8A01972E690100
:100BE0008916D0F4E92DE52141F0D801EC916C2E65
:100BF000682460FE0FC0E82BEC93969439F4BFEFA5
:100C0000CB1ADB0AF6015490E0E89E2E83940F5F26
:100C10001F4FE6CFE721F0CFCE25880F19F44C5AAD
:100C20005F4F81E0DF5F2A0D3B1D90CF962E8A013A
:100C3000E72F6901991688F78E2E852021F0D801BB
:100C40008C9088268C92E69531F4BFEFCB1ADB0AA4
:100C5000F6015490E0E893940F5F1F4FEBCFDF91C4
:100C6000CF911F910F91FF90EF90DF90CF90BF90A9
:100C7000AF909F908F907F906F905F903F902F905C
:100C80000895DC01643570F5403360F590968C91E1
:100C90009097E62F062E000CFF0B242F2595259507
:100CA000259594E52902E00DF11D1124E354FE4F32
:100CB0002081342F37708230B1F4822F90E0032EE0
:100CC00002C0959587950A94E2F78095817081110D
:100CD00014C081E090E001C0880F3A95EAF7809552
:100CE000822380830895833091F71C968C918170C4
:100CF0006427609561708613ECCF81E090E001C0BD
:100D0000880F3A95EAF7822BECCFAF92BF92CF9241
:100D1000DF92EF92FF920F931F93CF93DF93182FE1
:100D2000062FC0E0D3E08AEFD82E9EEFE92E842F65
:100D30008470C82E842F8270B82E842F8870A82EBD
:100D40004170F42ECF5F8C2F880F8F5FE80ECC2080
:100D500081F0402F4D0F612F6C0F8BE094E00E94CB
:100D60004106402F4C0F6D2F610F8BE094E00E94E5
:100D70004106BB2081F0402F4D1B612F6C0F8BE093
:100D800094E00E944106402F4C1B6D2F610F8BE0B9
:100D900094E00E944106AA2081F0402F4C0F612F61
:100DA0006D1B8BE094E00E944106402F4D0F612F98
:100DB0006C1B8BE094E00E944106FF2081F0402FE5
:100DC0004C1B612F6D1B8BE094E00E944106402F6D
:100DD0004D1B612F6C1B8BE094E00E944106CD17E8
:100DE0003CF4E7FCAFCFD150D394D394ED0CAACF11
:100DF000DF91CF911F910F91FF90EF90DF90CF90F7
:100E0000BF90AF9008950F931F93CF93DF93D82F88
:100E1000162F042FC0E0C0174CF4412F4C0F6D2F3C
:100E20008BE094E00E944106CF5FF5CFDF91CF9138
:100E30001F910F9108958F929F92AF92BF92CF9280
:100E4000DF92EF92FF920F931F93CF93DF93082FC0
:100E5000A62E842E922E83E0F82ED0E0C3E09AEFE7
:100E6000E92E1EEFBB24B394B20EDF5F1F0D4C2F93
:100E7000440F6A2D6C1BC92CCF0CDA2CDD1A81E0D3
:100E80004B0D881215C0802F8D0F0E9403074C2D2B
:100E90006D2D8C2F800F0E940307DC1794F417FD33
:100EA00004C0C150E394E3941E0DF394F394DDCF9A
:100EB000802F8D1B0E9403074C2D6D2D802F8C1BC6
:100EC000EACFDF91CF911F910F91FF90EF90DF90CC
:100ED000CF90BF90AF909F908F900895CF92DF9268
:100EE000EF92FF920F931F93CF93DF937C01D62E47
:100EF000C22EC42F002E000C110B040F111D47FD34
:100F00001A958C2F0C2E000C990B801791076CF4FE
:100F1000D0E0DC1544F46D2D6D0F4C2FC7010E94FD
:100F20004106DF5FF6CFCF5FECCFDF91CF911F910E
:100F30000F91FF90EF90DF90CF900895CF92DF92C6
:100F4000EF92FF920F93CF93DF936C01EB01F12CA3
:100F5000E12CF60180819181E816F90694F468810C
:100F60007981693FFFEF7F0739F003E022E04A8192
:100F70008BE094E00E946E078FEFE81AF80A24963F
:100F8000E8CFDF91CF910F91FF90EF90DF90CF905E
:100F900008954F925F926F927F928F929F92AF923D
:100FA000BF92CF92DF92EF92FF920F931F93CF9356
:100FB000DF93EC016A3049F428859D818A85299F59
:100FC000800D11248A871986A6C06D3009F4A3C04C
:100FD000898483E588150CF487C0DA848FE28D1547
:100FE0000CF482C018852C812150330B129FC00154
:100FF000139F900D1124880D911D87FC9A9518164A
:1010000019060CF071C02D818D2D0D2C000C990B43
:10101000129F800D911D1124181619060CF064C042
:1010200078A0C82C912CE62EF12C292D092C000C2F
:10103000330B8C8190E0281739070CF054C00197CE
:10104000E0E02817390771F0E89EF001E99EF00D05
:10105000F89EF00D11242E0F3F1FEE8DFF8DE20F35
:10106000F31FE4915D2C612C492C480C2D81862DB9
:10107000062C000C990B2817190691F18CF1AE2E55
:10108000B12CE0FF16C0113061F4462D4D0D642DDA
:10109000CE010E944106F501F595E7956394510E46
:1010A000E5CF012F212F452D6C2DCE010E946E071B
:1010B000F2CF89A198A1891771F388A3113041F467
:1010C000462D4D0D642DCE010E94410678A2E3CF3E
:1010D000012F212F452D6C2DCE010E946E07F6CFDA
:1010E0009394C10EA2CF78A228853C818985239F45
:1010F000800D112489879F81992369F0082E000CA7
:10110000990B44E550E0239F4019510911244817D9
:1011100059070CF452CF81E090E0DF91CF911F91FD
:101120000F91FF90EF90DF90CF90BF90AF909F9086
:101130008F907F906F905F904F900895682F8BE015
:1011400094E00C94C9070F931F93CF93DF938C0106
:10115000D0E0C0E0F801EC0FFD1F6491662341F080
:101160008BE094E00E94C907892B11F02196F2CF01
:10117000CE01DF91CF911F910F910895089590E0D6
:1011800080E00895FC0101900020E9F73197AF015C
:10119000481B590BBC018BE094E00C9451028F92D8
:1011A0009F92AF92BF920F931F93CF93DF93CDB7D0
:1011B000DEB7A1970FB6F894DEBF0FBECDBF19A260
:1011C000423008F44AE08E010F5D1F4F842E912CAF
:1011D000B12CA12CA50194010E943216E62FB90171
:1011E000CA01EA30F4F4E05DD801EE938D01232BBF
:1011F000242B252B79F790E080E0109719F0CD0192
:101200000E94C208A1960FB6F894DEBF0FBECDBFF4
:10121000DF91CF911F910F91BF90AF909F908F90D2
:101220000895E95CE1CFCF93DF930E94A308EC011E
:1012300083E291E00E94C2088C0F9D1FDF91CF9145
:101240000895EDEBF1E088EF91E0DF019C011D9244
:1012500021503040E1F7109214041092150485E8F3
:1012600093E00E94A3080E94F4028CB583608CBDB9
:101270008DB58E7F8DBD86E291E0EEEFFFE309959F
:101280001092110480E693E00E9413090E94F40278
:101290000E946B038091D203813039F062E370E0E9
:1012A00080E090E00E947D04F3CF08954F925F921A
:1012B0006F927F928F929F92AF92BF92CF92DF9266
:1012C000EF92FF920F931F93CF93DF9300D000D044
:1012D0001F92CDB7DEB740913D0450913E0460911E
:1012E0003F04709140042FB7F8948091B901909118
:1012F000BA01A091BB01B091BC012FBF481B590B93
:101300006A0B7B0B80913C0490E0B0E0A0E0009180
:1013100038041091390420913A0430913B04841729
:101320009507A607B70708F0CEC0011511052105DE
:10133000310509F4C8C02FB7F8948091B901909194
:10134000BA01A091BB01B091BC012FBF20913C0418
:10135000820F911DA11DB11D80933D0490933E0409
:10136000A0933F04B093400480912E0490912F04E9
:10137000A0913004B09131040196A11DB11D80935C
:101380002E0490932F04A0933004B0933104109254
:1013900038041092390410923A0410923B040E94CF
:1013A000580460933404709335048093360490930A
:1013B00037048091BE039091BF032FE0289FA001C6
:1013C000299F500D11245A83498385E10E940F04FF
:1013D000A981BA818A0F9B1FB4E096958795BA952B
:1013E000E1F79093BF038093BE032091BD032223B6
:1013F00009F448C06091C103262F30E050E040E07E
:1014000029833A834B835C83C090C203D12CF12C97
:10141000E12C4091C5035091C6034A01B12CA12C87
:101420002091C3033091C4032901712C612C8217D0
:10143000930728F09C014817590708F49A0150E0D7
:1014400040E0241935094609570969817A818B8161
:101450009C816C197D098E099F090E948D17A50139
:10146000940124193509460957090E940016C20E35
:10147000D31EE41EF51EC092C0036C2D70E085E003
:101480000E94B2030E946B038091D9039091DA030A
:10149000892B11F00E94210481E00F900F900F9092
:1014A0000F900F90DF91CF911F910F91FF90EF90D0
:1014B000DF90CF90BF90AF909F908F907F906F9074
:1014C0005F904F900895012B022B032B09F075C1FB
:1014D0008091D40381508E3F28F58091D3038130D1
:1014E00009F58091E7038F5F6091E80387FD09C0EC
:1014F000082E000C990B70E06F5F7F4F0E94A917B8
:10150000682F6093E70389E593E09093420480930A
:10151000410488E48093430466E473E082EE93E040
:101520000E94BE048091D40381508E3F70F480915C
:10153000D203813009F021C38CE493E090934204FC
:101540008093410488E4809343048091E2038823DC
:1015500031F08091E303811102C00E94D604809192
:10156000E303882309F43EC08091F70381113AC058
:101570008091EF039091F003E091F403F091F50373
:10158000EE0FFF1FE80FF91F25913491211531054A
:1015900009F46AC1A9015695479556954795842F38
:1015A00020FD0DC18F738093F6038091E603839F26
:1015B000802D11248093F7031092070410920604E3
:1015C0001092050481E08093F9038093B801109292
:1015D000FA038091F4039091F50301969093F5033B
:1015E0008093F4038091F903882341F08091F703FD
:1015F000811156C182EE93E00E94AF0480914304B2
:10160000882309F490C08C3008F034C23CE0381BC9
:101610003983FF24F394F092130410922B04109258
:101620002C04409110044D831981141B042F0D5F6D
:101630004DE2410F2EE463E08BE094E00E946E07E0
:101640005D8154505D83105D252F41E0612F80E561
:101650000E941B072D8142E0612F83E00E941B073F
:10166000F0922B04F0922C040091100483E0800F80
:101670008D831981101B9DE2E92EE10E23E0F22EED
:101680004E2D6F2D8BE094E00E944106F39491E57E
:10169000F912F6CFAD81AE0DAD83EA2EEA9483E068
:1016A000F82E4E2D6F2D8BE094E00E944106F394AE
:1016B000B1E5FB12F6CF0350105D402F612F80E0A3
:1016C0000E940307402F612F83E50E94030741E03A
:1016D000612F83E00E94850642E0612F80E50E9431
:1016E00085062D8124502D8344E0622F80E50E94E1
:1016F000850648E06D8183E00E94850684E0809342
:101700001404809110043981381B315D3093150425
:1017100080914104909142040E94A3088091430467
:101720008150809343048091D9039091DA03892BEF
:10173000E1F041E040932B0410922C0490910F04AF
:1017400085E5891B80931404109215048091D603BB
:10175000813009F4F7C108F48FC19091D503853029
:1017600008F006C28B5F9111FEC10E94F4028091C5
:10177000110481110EC0EDEBF1E088EF91E0DF0183
:101780009C011D9221503040E1F7109214041092F8
:1017900015040E94580460933804709339048093B0
:1017A0003A0490933B042091340430913504621B39
:1017B000730B709333046093320480E06ECEC901E2
:1017C000E6E096958795EA95E1F78F71932F9695C8
:1017D0009695969590514F70423099F1D0F44423EC
:1017E00009F43CC04130B9F1E091F403F091F50304
:1017F0003196F093F503E093F403CF01880F991F1E
:10180000E091EF03F091F003E80FF91F2591349177
:10181000C1CE433061F0443039F72091E603289F70
:10182000802D11248093FF0390930004DDCF20913D
:10183000E603289F802D11248093FD039093FE03DF
:10184000D3CF2091E603289F802D11248093FB03A2
:101850009093FC03C9CF0E942502C6CF8B3008F0BD
:101860008AE08093F803C0CF2091F303211112C0C6
:101870001092E3038091E203811105C082EE93E0B0
:101880000E94AF04AFCE0E94D6048091F4039091E1
:10189000F503B4CF1092F5031092F403FC01B6CF18
:1018A00081508093F70380910704811142C02091F9
:1018B0000504309106042F5F3F4FC901880F991F1F
:1018C000E0910104F0910204E80FF91F85919491D1
:1018D000482F477040930804492F469546954093FA
:1018E0000904AC0164E0569547956A95E1F74F739A
:1018F0009091E603499F402D11244093070483FBF8
:10190000882780F98093B70130930604209305045B
:101910008091030490E02817390758F020910404BF
:10192000222309F49FC0821B91099093060480939F
:101930000504809107048150809307048091FA0385
:1019400031E0380F3093FA034091F60320910904F7
:10195000240F8091EE03280F2093E4036091FD0390
:10196000662371F070E0832F032E000C990B0E9408
:10197000A9178091FE03869F200D11242093E40374
:101980008091E40390E0849664E270E00E94A917DD
:101990008093E4032091F8032093E5036091FB0317
:1019A000662381F0062E000C770B832F032E000C8C
:1019B000990B0E94A9178091FC03869F200D11248A
:1019C0002093E5036091FF036623A1F0832F330F7B
:1019D000990B70E00E94A917CB0162E070E00E94B1
:1019E000A917209100049091E503289F900D1124E0
:1019F0009093E5034F3309F43AC08091E5038A30B0
:101A00000CF089E087FD80E08093E503F894E09195
:101A1000E403F0E0EE5DFC4FE491E093B601209129
:101A20000A043091E5033203900111244091080427
:101A30004203C001439F900D11242091E70302C08F
:101A4000880F991F2A95E2F797FF02C081589F4F90
:101A5000880F892F881F990B8093B5018093B4015B
:101A60007894CCCD82EE93E00E94AF0462CF1092C6
:101A7000E503CCCF1982CDCD82EE93E00E94AF0476
:101A80001092E30351E050931304E0EAF1E0E49193
:101A9000EF5FE0930F04E1EAF1E0E491EF5FE093A0
:101AA000100482EA91E090932A0480932904109212
:101AB000DA031092D9031092110488EA89830E94F4
:101AC00056098823E1F382E991E00E94A30860911E
:101AD000D7037091D80390E080E04AE00E94CF08DD
:101AE0008DE791E00E94A308698162956F7070E0B4
:101AF00090E080E04AE00E94CF0882E791E00E94F7
:101B0000A3088091D203813009F42FCE998191509E
:101B100099839111D4CF70E060E085E00E94B20318
:101B200083B7817F846083BF83B7816083BF83B7BE
:101B3000816083BF889583B78E7F83BF83B78E7F95
:101B400083BFBDCF80912E0490912F04A0913004CB
:101B5000B09131048F709927AA27BB270897A10558
:101B6000B10520F487E00E949E08FFCD88E7FBCFF7
:101B7000992309F4FACD8FE2F6CF893209F0E5CC4A
:101B80000E942109E2CCCF92DF92EF92FF921F9345
:101B9000CF93DF9320912D04222309F4BCC0EC01E4
:101BA00081E0809313041092120410921104109299
:101BB000D50380932B0480932C041CE00E945609CB
:101BC0008823E1F3FE01849122E031E040E060E00F
:101BD0008BE094E00E940105109214041093150408
:101BE000CE010E94A30880910F04982F990F990F9E
:101BF000891B8D5A8093140480911004982F990F9B
:101C0000990F891B835D8093150480912E0484FFB6
:101C10006AC08EEF90E00E94130980910F04982F04
:101C2000990F990F891B8D5A809314048091150484
:101C30008F5F809315048091E703882309F456C0D1
:101C400086EF90E00E94130980910F04982F990F5E
:101C5000990F891B8D5A80931404809115048F5F0E
:101C6000809315048EEE90E00E9413098091D303B7
:101C70008130C1F48091E7038F5F6091E80387FDB5
:101C800009C0082E000C990B70E06F5F7F4F0E9417
:101C9000A917682F6093E70366E473E082EE93E090
:101CA0000E94BE048091D203813019F180912D04ED
:101CB000482F50E070E060E0C0902E04D0902F04D8
:101CC000E0903004F0903104C416D506E606F7061D
:101CD00010F08F3F71F48091D403813009F06ECF02
:101CE0000E9421096BCF8AEF90E095CF82EF90E0C0
:101CF000A9CF8FEF80932D0482EE93E00E94AF0472
:101D00001092E30366EE70E082EE93E00E94BE0460
:101D100081E08093D503DF91CF911F91FF90EF90E9
:101D2000DF90CF9008951F920F920FB60F9211245B
:101D30002F933F938F939F93AF93BF938091B9015C
:101D40009091BA01A091BB01B091BC0130912F01DB
:101D500023E0230F2D3758F50196A11DB11D2093C7
:101D60002F018093B9019093BA01A093BB01B09366
:101D7000BC018091300190913101A0913201B0916C
:101D800033010196A11DB11D809330019093310163
:101D9000A0933201B0933301BF91AF919F918F9186
:101DA0003F912F910F900FBE0F901F90189526E82E
:101DB000230F0296A11DB11DD2CF1F920F920FB615
:101DC0000F9211242F936F937F938F939F93609122
:101DD000B501662349F180912E018F5F80932E011A
:101DE0009091B601891700F12091B80181E0282770
:101DF0002093B80110922E018091B701882369F0D9
:101E00008091000193E4899F802D1124895B809348
:101E100000010E949D179093B4018091B40121119B
:101E200001C080E08093B4009F918F917F916F916A
:101E30002F910F900FBE0F901F901895CF93DF93A7
:101E400000D0CDB7DEB7789484B5826084BD84B508
:101E5000816084BD85B5826085BD85B5816085BDA5
:101E600080916E00816080936E001092810080915D
:101E700081008260809381008091810081608093E5
:101E80008100809180008160809380008091B1000A
:101E900084608093B1008091B00081608093B00035
:101EA00080917A00846080937A0080917A008260C9
:101EB00080937A0080917A00816080937A0080918B
:101EC0007A00806880937A001092C10082E3809348
:101ED0003C0481E090E0A0E0B0E08093380490936F
:101EE0003904A0933A04B0933B048FEF80932D0400
:101EF000E0E8F7E7259134912130304C09F0FCC43B
:101F0000E6E9F7E7E491E0931604E7E9F7E7E491FF
:101F1000E093C103E8E9F7E7E491E093C203E9E95C
:101F2000F7E7859194919093C4038093C303EBE901
:101F3000F7E7859194919093C6038093C50387E05A
:101F40008093E803EEE9F7E7E491E093E703EFE934
:101F5000F7E7E491E0932D04E0EAF7E785919491A7
:101F60009093DA038093D903E2EAF7E7859194919D
:101F70009093DC038093DB03E4EAF7E78591949187
:101F80009093DE038093DD03E6EAF7E78591949171
:101F90009093E0038093DF0381E08093BD036FEFB4
:101FA00070E085E00E94B20388E08093C70389E077
:101FB0008093C80387E08093C90386E08093CA03B7
:101FC00094E09093CB0382E08093CC0381E18093F3
:101FD000CD030E946B038CE39FE09093D803809322
:101FE000D703A4E0A093D603B1E0B093E1038BE064
:101FF000809319048DE08093180480E180931A0483
:102000008EE080931C048FE080931B04B093130434
:10201000B0932B0410922C04B0931204E0EAF1E088
:10202000E491EF5FE0930F04E1EAF1E0E491EF5F08
:10203000E093100482EA91E090932A0480932904AB
:10204000EFB7E983F89480913401811127C0E1EC66
:10205000F3E08491E5EDF3E09491E82FF0E0EE0FEA
:10206000FF1FEC58FF4FA591B491EC91E92321F4A7
:1020700061E08AE00E94A70261E08AE00E942F03EB
:102080008CB580618CBD8CB580648CBD61E08DE0C9
:102090000E942F0361E08BE00E942F0380913401A6
:1020A0008F5F80933401F981FFBF8CB58F7D8CBD2C
:1020B0008CB58C7F81608CBD8DB581608DBD8CB5FC
:1020C0008C608CBD61E0809119040E942F0361E057
:1020D000809118040E942F0361E080911A040E94ED
:1020E0002F0380911C0418161CF461E00E942F033A
:1020F00080911B0418161CF461E00E942F0380914C
:102100001C04181674F460E00E94A7026AE070E0F4
:1021100080E090E00E947D0461E080911C040E94B8
:10212000A70280911804082E000C990BFC01E954B9
:10213000FC4FE491F0E0EE0FFF1FE258FF4F2591B6
:1021400034913093200420931F04FC01E553FC4F8D
:10215000E491E093260480911904082E000C990B59
:10216000FC01E954FC4FE491F0E0EE0FFF1FE25850
:10217000FF4F2591349130931E0420931D04FC01E0
:10218000E553FC4FE491E093250480911B04082E55
:10219000000C990BFC01E954FC4FE491F0E0EE0FC8
:1021A000FF1FE258FF4F2591349130932204209372
:1021B0002104FC01E553FC4FE491E0932704809156
:1021C0001A04082E000C990BFC01E954FC4FE49111
:1021D000F0E0EE0FFF1FE258FF4F2591349130934E
:1021E000240420932304FC01E553FC4FE491E09385
:1021F000280481E20E94D50284E10E94D5028091E8
:10220000160487FF03C08FE780931604809116049D
:1022100080680E94D50280E20E94D5028CE00E9474
:10222000D5020E94F40281E08093E60384E080936B
:102230000A0480E790E09093F2038093F10380E03A
:102240000E94250261E070E083E00E94B203809169
:10225000B100887F81608093B100F8941092800073
:1022600010928100109285001092840088E191E024
:10227000909389008093880080918100886080938A
:1022800081008091810081608093810080916F0046
:10229000826080936F0078948091D9039091DA03E3
:1022A000892B11F00E9421048091D303813009F41D
:1022B00050C38091D603882309F44BC368E870E0CB
:1022C00082EE93E00E94BE0486E990E00E94C30D76
:1022D000109211042EE631E089E5482E81E0582E57
:1022E00041E0F20187E090E041930197E9F787E050
:1022F000480E511C24153505A1F710924C0110927F
:102300004B0189E090E090934E0180934D0182E172
:1023100090E09093500180934F018BE190E0909377
:1023200052018093510184E290E090935401809394
:1023300053018DE290E0909356018093550186E31E
:1023400090E0909358018093570108E7202E01E018
:10235000302E89EF9FEFD1018D939C93B4E02B0E2B
:10236000311CE4EB2E16E1E03E06A9F7909338010C
:102370008093370190933C0180933B0190934001FF
:1023800080933F01909344018093430190934801CF
:10239000809347018EE997E0909336018093350151
:1023A00019EF812E99249A940E945609882309F4E2
:1023B00070C38091D40381508E3F20F487ED90E06C
:1023C0000E94C30D8091CE0381508E3F08F0C4C29D
:1023D0008091070190910801181619060CF0BCC2F3
:1023E000019790930801809307018091D203813077
:1023F000C9F4E8E7F1E090E080E020813181293FF5
:102400003F4F09F0B9C220910701309108012D5FBB
:102410003F4F3183208386589E4FEEE2F0E0DC018F
:10242000ED93FC9380910501909106011816190611
:1024300044F48091030190910401181619060CF4DC
:102440008AC068EE73E080E090E00E947D0426E29E
:1024500030E0309308012093070183E090E09093EF
:102460000401809303011092770110927601A2E09B
:10247000B0E0B0930201A0930101E5E1F0E0F09338
:102480000601E093050110927501109274011092FB
:1024900073011092720110927101109270011092EA
:1024A0006F0110926E0189E591E041E0FC0127E0A7
:1024B00030E0419321503109E1F7079684159505E5
:1024C000A9F710924C0110924B0129E030E03093B3
:1024D0004E0120934D0182E190E090935001809352
:1024E0004F01ABE1B0E0B0935201A093510184E2FF
:1024F00090E090935401809353018DE290E090938B
:1025000056018093550186E390E0909358018093A3
:102510005701E8E7F1E09182808234962E163F065B
:10252000D1F7E9EFFFEFF0933801E0933701F09333
:102530003C01E0933B01F0934001E0933F01F093B5
:102540004401E0934301F0934801E093470188EC94
:1025500090E00E94C30D8091720190917301FC0183
:10256000E75AFE4F208121111BC0FC01E05AFE4FAB
:102570002081211115C0FC01E959FE4F2081211154
:102580000FC0019649E0489F9001499F300D1124EA
:1025900030937501209374019093730180937201BD
:1025A00080916E0190916F01EFE5F1E0E81BF90B6E
:1025B000208121111DC0E6E6F1E0E81BF90B208126
:1025C000211116C0EDE6F1E0E81BF90B2081211185
:1025D0000FC0019649E0489F9001499F300D11249A
:1025E000309371012093700190936F0180936E017D
:1025F00080910101909102018130910509F4C3C1DC
:102600000297F9F4EBE4F1E081919191DF011297E7
:1026100001968D939C9321E0E935F207A9F780910B
:10262000700190917101469620914B0130914C01BF
:102630002817390734F081E090E0909302018093ED
:102640000101AEE0CA2ED12CB8E1AB2EB12CF7E3DC
:10265000EF2EF1E0FF2E87010E94A81527E030E061
:1026600040E050E00E940016F601E60FF71FE75A1F
:10267000FE4F20812223B1F0D8012D913C91293FBA
:102680003F4F81F4660F771F655B7E4FFB018081B2
:1026900091810496D80111969C938E931396BC92C7
:1026A000AE9212970C5F1F4FB1E00B341B07A1F6DF
:1026B000E8E0AE1AB108F7E0CF1AD10829EFC21648
:1026C0002FEFD20621F608E711E0D8018D919C91F9
:1026D000079631F0F8018281938102979383828378
:1026E000D80112968D919C918D3F9F4F2CF4F8014B
:1026F00091828082938282820C5F1F4FF1E0043BC3
:102700001F0719F757E3C52E51E0D52ED6018D913D
:102710009C91079631F0F601828193810296938312
:102720008283D60112968D919C911397C4973CF0A9
:1027300011969C928E9213969C928E921297B4E070
:10274000CB0ED11CEBE4CE16E1E0DE06F9F680916B
:10275000760190917701883291050CF034C1019691
:1027600090937701809376014DE1C42E41E0D42E01
:1027700089E591E09A838983A980BA803BE4632E3E
:1027800031E0732E28E7E22E21E0F22ED5018C9164
:102790008823A9F1F70180819181D3012D913C918A
:1027A000A901485F5F4F841795074CF502962817DB
:1027B00039072CF582819381F60120813181A901AD
:1027C000485F5F4F84179507D4F40396281739079D
:1027D000B4F466E473E082EE93E00E94BE04D50197
:1027E0001C9280910501909106010197909306013A
:1027F00080930501F7019182808293828282F4E0C6
:10280000EF0EF11C0E151F0509F622E0620E711C79
:102810003FEFA31AB30A89E591E08615970509F001
:10282000B1CF92E0C90ED11CA981BA811796BA83A3
:10283000A983E3E2F1E0EC15FD0509F09DCFEDEB96
:10284000F1E088EF91E0DF019C011D9221503040C2
:10285000E1F71092140410921504E0913501F09103
:10286000360168E771E08BE191E00995E09135016F
:10287000F091360167E371E089E191E0099523EC7D
:1028800030E04DE2609107018BE094E00E94010589
:1028900099E5C92E91E0D92E10E000E08BE4E82EF6
:1028A00081E0F82E5601D5018D915D018823A9F0B4
:1028B000F70160812FEA30E04AE00130110549F06C
:1028C00029EB30E041E00230110519F425EA30E04F
:1028D00043E18BE094E00E940105F2E0EF0EF11C71
:1028E0006E147F0401F70F5F1F4F27E0C20ED11C4B
:1028F0000330110599F658CD9CE39093160410927D
:10290000C1038093C20380E293E09093C403809359
:10291000C30384ED93E09093C6038093C50387E0DF
:102920008093E8038093E7038CEA9DE09093DA03B9
:102930008093D9038EED9DE09093DC038093DB03BD
:1029400084E79EE09093DE038093DD038CE39FE0B9
:102950001FCB1092E703B8CC8091D00381508E3FFB
:1029600008F043CD80910701909108018F349105C3
:102970000CF03BCD019635CD049634968C33910501
:1029800009F03BCD4FCDEBE4F1E081919191DF0176
:10299000129701978D939C9331E0E935F307A9F7DE
:1029A000209174013091750181E090E0821B930BBE
:1029B00020914B0130914C01281739070CF041CE82
:1029C00082E090E03ACE8091070190910801D70112
:1029D0002D913C911197A9014E5F5F4F8417950788
:1029E0000CF04FC00596281739070CF04AC0129614
:1029F0008D919C918B97059708F043C080910301BE
:102A00009091040101979093040180930301109227
:102A1000770110927601E9EFFFEFF0933801E09330
:102A20003701F0933A01E0933901F0933C01E093D0
:102A30003B01F0933E01E0933D01F0934001E093B0
:102A40003F01F0934201E0934101F0934401E09390
:102A50004301F0934601E0934501F0934801E09370
:102A60004701F0934A01E093490168EE73E080E08A
:102A700090E00E947D0426E230E03093080120932C
:102A8000070134E0E30EF11CCE14DF0409F09BCF04
:102A90006BCE80E090E0892B09F486CC0E94000088
:102AA00083CC10920E0410920D0481E191E090937A
:102AB0000C0480930B0408958F929F92AF92BF9263
:102AC000CF92DF92EF92FF92CF93DF93EC01688178
:102AD00079818A819B81611571058105910521F4B8
:102AE00064E279ED8BE597E02DE133EF41E050E0D2
:102AF0000E94001649015A019B01AC01A7EAB1E40A
:102B00000E941F166B017C01ACEEB4EFA50194018D
:102B10000E942D16C60ED71EE81EF91EF7FE06C02F
:102B200081E0C81AD108E10880E8F80AC882D98291
:102B3000EA82FB82C701B6019F77DF91CF91FF90B8
:102B4000EF90DF90CF90BF90AF909F908F900895BF
:102B50008F929F92AF92BF92CF92DF92EF92FF92AD
:102B60006091090170910A0180910B0190910C0113
:102B7000611571058105910521F464E279ED8BE51C
:102B800097E02DE133EF41E050E00E94001649014B
:102B90005A019B01AC01A7EAB1E40E941F166B0128
:102BA0007C01ACEEB4EFA50194010E942D16C60E77
:102BB000D71EE81EF91EF7FE06C081E0C81AD1082C
:102BC000E10880E8F80AC0920901D0920A01E09277
:102BD0000B01F0920C01C701B6019F77FF90EF90B7
:102BE000DF90CF90BF90AF909F908F9008956093AB
:102BF000090170930A0180930B0190930C010895D1
:102C0000052E97FB1EF400940E94171657FD07D05F
:102C10000E94321607FC03D04EF40C941716509500
:102C20004095309521953F4F4F4F5F4F08959095B8
:102C30008095709561957F4F8F4F9F4F08950E94AB
:102C40005416A59F900DB49F900DA49F800D911DCB
:102C500011240895B7FF0C941F160E941F16821BA3
:102C6000930B0895A1E21A2EAA1BBB1BFD010DC0F8
:102C7000AA1FBB1FEE1FFF1FA217B307E407F5072C
:102C800020F0A21BB30BE40BF50B661F771F881F08
:102C9000991F1A9469F760957095809590959B019E
:102CA000AC01BD01CF010895A29FB001B39FC00147
:102CB000A39F700D811D1124911DB29F700D811D68
:102CC0001124911D08950E94D71688F09F5798F0FF
:102CD000B92F9927B751B0F0E1F0660F771F881F21
:102CE000991F1AF0BA95C9F714C0B13091F00E943B
:102CF000F116B1E008950C94F116672F782F88270C
:102D0000B85F39F0B93FCCF3869577956795B39561
:102D1000D9F73EF490958095709561957F4F8F4FD0
:102D20009F4F0895E89409C097FB3EF490958095D5
:102D3000709561957F4F8F4F9F4F9923A9F0F92F81
:102D400096E9BB279395F695879577956795B795FF
:102D5000F111F8CFFAF4BB0F11F460FF1BC06F5FE5
:102D60007F4F8F4F9F4F16C0882311F096E911C0F7
:102D7000772321F09EE8872F762F05C0662371F018
:102D800096E8862F70E060E02AF09A95660F771F2C
:102D9000881FDAF7880F9695879597F9089557FD5C
:102DA0009058440F551F59F05F3F71F04795880FB9
:102DB00097FB991F61F09F3F79F087950895121650
:102DC00013061406551FF2CF4695F1DF08C01616FC
:102DD00017061806991FF1CF8695710561050894AD
:102DE0000895E894BB2766277727CB0197F90895C4
:102DF0000E940B170C947C170E946E1738F00E94EB
:102E0000751720F0952311F00C9465170C946B172F
:102E100011240C94F2160E94CF1670F3959FC1F303
:102E2000950F50E0551F629FF001729FBB27F00D78
:102E3000B11D639FAA27F00DB11DAA1F649F6627CD
:102E4000B00DA11D661F829F2227B00DA11D621F1C
:102E5000739FB00DA11D621F839FA00D611D221FD6
:102E6000749F3327A00D611D231F849F600D211DBA
:102E7000822F762F6A2F11249F5750409AF0F1F03D
:102E800088234AF0EE0FFF1FBB1F661F771F881FA6
:102E900091505040A9F79E3F510580F00C94651762
:102EA0000C94F2165F3FE4F3983ED4F38695779541
:102EB0006795B795F795E7959F5FC1F7FE2B880F4C
:102EC000911D9695879597F9089597F99F6780E8E2
:102ED00070E060E008959FEF80EC089500240A946C
:102EE0001616170618060906089500240A941216E5
:102EF0001306140605060895092E0394000C11F418
:102F0000882352F0BB0F40F4BF2B11F460FF04C0C4
:102F10006F5F7F4F8F4F9F4F0895DB018F939F937C
:102F20000E941F16BF91AF91A29F800D911DA39F7C
:102F3000900DB29F900D11240895991B79E004C063
:102F4000991F961708F0961B881F7A95C9F78095E8
:102F5000089597FB072E16F4009407D077FD09D04B
:102F60000E94BD1707FC05D03EF4909581959F4FB8
:102F70000895709561957F4F0895AA1BBB1B51E181
:102F800007C0AA1FBB1FA617B70710F0A61BB70BD9
:102F9000881F991F5A95A9F780959095BC01CD017E
:102FA0000895EE0FFF1F0590F491E02D0994F89419
:022FB000FFCF51
:102FB20001020003001500260001000000000000CD
:102FC20000C9075102BF08BE0805000F0001000A30
:0E2FD2000013000D0A004C4F41444552000010
:00000001FF
