:100000000C94FB010C9423020C9423020C94230205
:100010000C9423020C9423020C9423020C942302CC
:100020000C9423020C9423020C9423020C94DD0EF6
:100030000C9423020C9423020C9423020C942302AC
:100040000C94930E0C9423020C9423020C94230220
:100050000C9423020C9423020C9423020C9423028C
:100060000C9423020C9423020101FF030101F70306
:100070006C00680000000000240027002A00000037
:100080000000250028002B000500893008023802F6
:1000900049786814000053706163655F496E76614A
:1000A000646572730008083C7EFF7E3C3C181808AB
:1000B0000818DB99BDFF3C3C18080818BDFFFF99E4
:1000C000183C1808032070F8537061636520496E6E
:1000D00076616465727300537061636520496E7662
:1000E00061646572730005003801680100001753F0
:1000F0004400161378001613140015102000152064
:100100001000540A03E181867F3E186D830F0F0EA5
:100110000183866033186DC3198F1803C38E603353
:10012000186DE330CF1803C39E603630CDE360CF47
:100130003006C79E7E3E30CDB360CF300CC6F66031
:100140003330D9B660CF33CFCCF66061B0DB1E6000
:10015000CF30D86CE6C061B0DB1E618F19986CC6D9
:10016000C063B19B0E330F0FB078C6FF7E1F1B0616
:100170001E0F0A0A153A49676E6F7265006D560ABE
:100180000A504C45415345205455524E204F464647
:1001900020004C4F572042415454455259212000D1
:1001A00003053F213F1208120A100A0E1C0E0C1EF6
:1001B0000C141A14161F161E131E1E1B1E1E1F1EA5
:1001C0003F213F3A2F3A173D173F213F181F0204A6
:1001D0000A041F0E04040E1F0A1F0A0E0E1F04112C
:1001E0000E2E252E2F2A2E262929021F02081F082F
:1001F000150E04040E150E15151B151B040604041C
:100200000C040000000017000300031F0A1F16372C
:100210001A1904130A153A000300000E11110E00FA
:100220000A040A040E04003000040404001000183C
:1002300004031F111F121F101D151711151F07048E
:100240001F17151D1F151D01011F1F151F17151F36
:10025000000A00003200040A110A0A0A110A040105
:1002600015020E11171E051E1F150A0E110A1F1169
:100270000E1F15111F05010E111D1F041F111F1147
:1002800008100F1F041B1F10101F061F1E040F0E47
:10029000110E1F09060E112E1F051A121509011F36
:1002A000011F101F0F180F1F0C1F1B041B031C0323
:1002B000191513001F11030418111F000201022059
:1002C00020200001020C121E1F120C0C12120C1224
:1002D0001F0C1A14041E05242A1E1F021C141D10B4
:1002E00020201D1F0814111F101E041E1E021C0CAE
:1002F000120C3E0A040C123E1E040214160A020FCF
:10030000120E101E0E100E1E081E120C1226281E93
:10031000322A26041E21001F00211E040102013F73
:10032000213FF6E8DBCFC3B8AEA49B928A827B74F0
:100330006E68625C57524E4945413E3A3734312E21
:100340002C2927252321450068010000172B1520A3
:1003500010204C4F4144455200172B162013140017
:100360000A4E6F2053442063617264206F720A6EDC
:100370006F204C4F414445522E4845580A0A153AC1
:1003800045786974001D20466C617368696E670A60
:1003900020206C6F616465722E2E2E0A0A444F4E27
:1003A0002754205455524E204F464621000000004D
:1003B00000230026002900040404040404040402A9
:1003C00002020202020303030303030102040810F2
:1003D00020408001020408102001020408102000BF
:1003E00000000800020100000304070000000000F4
:1003F00000000000691511241FBECFEFD8E0DEBF5A
:10040000CDBF11E0A0E0B1E0E2EEFFE202C0059056
:100410000D92A033B107D9F724E0A0E3B1E001C009
:100420001D92A234B207E1F711E0CBEFD1E004C096
:100430002197FE010E94E917CA3FD107C9F70E9420
:100440001E0F0C94EF170C94000090E0880F991F7A
:10045000E091EF03F091F003E80FF91F259134913B
:10046000309300042093FF03F901859194919091BA
:10047000E403989F802D112480930104F901659174
:100480007491472F50E08417150629F020F0F901E8
:1004900025913491832F989F802D112480930204FD
:1004A0000895AF92BF92CF92DF92EF92FF920F9397
:1004B0001F93CF93DF936C017B018B01040F151FFA
:1004C000EB015E01AE18BF08C017D10759F0699162
:1004D000D601ED91FC910190F081E02DC6010995C6
:1004E000892B79F7C501DF91CF911F910F91FF9073
:1004F000EF90DF90CF90BF90AF900895833081F060
:1005000028F4813099F08230A9F008958730A9F05D
:100510008830C9F08430B1F4809180008F7D03C0B1
:10052000809180008F7780938000089584B58F77C5
:1005300084BD089584B58F7DFBCF8091B0008F7707
:100540008093B00008958091B0008F7DF9CF1F9304
:10055000CF93DF93282F30E0F901E152FC4F8491D3
:10056000F901E553FC4FD491F901E954FC4FC491D2
:10057000CC23A9F0162F81110E947E02EC2FF0E00F
:10058000EE0FFF1FE258FF4FA591B4918FB7F8947B
:10059000EC91111108C0D095DE23DC938FBFDF9161
:1005A000CF911F910895DE2BF8CFCF93C82FF894E9
:1005B00060E0809118040E94A70280911904181627
:1005C0001CF460E00E94A702CEBD00000DB407FE3F
:1005D000FDCF8EB58091190418161CF461E00E94BD
:1005E000A7027894CF9108950F931F93CF93809192
:1005F00015048F5F809315040BEB11E0C0E08C2F86
:1006000080640E94D50280E80E94D50261E080915A
:1006100018040E94A7028091190418161CF460E0C7
:100620000E94A702F80184E591919EBD00000DB4DF
:1006300007FEFDCF9EB58150B9F7809119041816B9
:100640001CF461E00E94A702CF5F0C5A1F4FC63016
:10065000B1F680E4CF911F910F910C94D502CF9306
:10066000DF9390E0FC01E553FC4F249189549C4FAB
:10067000FC0184918823C9F090E0880F991FFC0148
:10068000EC58FF4FA591B491FC01E258FF4FC59182
:10069000D49161110DC09FB7F8948C91209582235D
:1006A0008C938881282328839FBFDF91CF91089561
:1006B000623051F49FB7F8943C91822F8095832348
:1006C0008C93E8812E2BEFCF8FB7F894EC912E2BE3
:1006D0002C938FBFEACFFF920F931F93CF93DF939B
:1006E000CBEBD3E0FF24FA9462E08A850E942F03CB
:1006F0002A8530E0F901E152FC4F8491F901E5537C
:10070000FC4F0491F901E954FC4F14911123E1F0DD
:1007100081110E947E02E12FF0E0EE0FFF1FE355F2
:10072000FC4FA591B491EC9189890E2369F0811158
:1007300013C0219683E0C23CD807B1F6DF91CF9178
:100740001F910F91FF90089589898F5F898B60E0D9
:100750008A850E942F03EDCF8F3F11F4198AF7CFBE
:10076000F98AF5CF1F93CF93DF93182FEB0161E048
:100770000E942F03209739F460E0812FDF91CF9101
:100780001F910C94A702CF3FD10511F461E0F5CF82
:10079000E12FF0E0E152FC4FE491E33031F140F41D
:1007A000E130B1F0E230E1F0C038D1057CF7E4CFC0
:1007B000E73029F1E83059F1E430B1F78091800059
:1007C000806280938000D0938B00C0938A0004C025
:1007D00084B5806884BDC7BDDF91CF911F91089516
:1007E00084B5806284BDC8BDF7CF809180008068E9
:1007F00080938000D0938900C0938800EDCF8091D2
:10080000B00080688093B000C093B300E5CF8091C2
:10081000B00080628093B000C093B400DDCF8E50F2
:10082000806480937C0080917A00806480937A0059
:1008300080917A0086FDFCCF8091780090917900BC
:1008400008958091DF038F7149F584E10E940F04C0
:10085000BC01990F880B990B0E94AC1626EE3FE362
:100860004EEC50E40E9410170E947B169B0170937F
:10087000D6036093D503672BB9F084E08093D4034B
:10088000E7EDF3E080E0419151912417350718F42A
:100890008093D40308958F5F8430A9F78091DF039C
:1008A0008F5F8093DF0308958FEF8093D403F6CF9B
:1008B0003FB7F8948091320190913301A0913401B7
:1008C000B091350126B5A89B05C02F3F19F00196C0
:1008D000A11DB11D3FBFBA2FA92F982F8827BC019A
:1008E000CD01620F711D811D911D42E0660F771FC2
:1008F000881F991F4A95D1F708958F929F92AF92C2
:10090000BF92CF92DF92EF92FF924B015C010E9467
:1009100058046B017C010E9458046C197D098E09F2
:100920009F09683E734081059105A8F321E0821A72
:100930009108A108B10888EEC80E83E0D81EE11C1A
:10094000F11C81149104A104B10429F7FF90EF90E8
:10095000DF90CF90BF90AF909F908F900895FC0153
:10096000178A158A14A213A2108E1092B201109247
:10097000B3011092B6011092B40008950F931F9323
:10098000CF93DF93EC018B010E94AF041E870D878C
:100990001B8A1A8A81E0898389E08E8B198E1B8ECF
:1009A0001D8EDF91CF911F910F910895E091E90382
:1009B0008E2F90E0880F991FE091E703F091E803F4
:1009C000E80FF91F859194918F3F980719F41092C1
:1009D000E00308959093EC039927880F991FE09105
:1009E000EA03F091EB03E80FF91F6591749180EE33
:1009F00093E00E94BE048091E9038F5F8093E90336
:100A000008952F923F925F926F927F928F929F9262
:100A1000AF92BF92CF92DF92EF92FF920F931F930C
:100A2000CF93DF93EC01F901E49031968491643522
:100A30000CF015C10E2C000CFF08062F062E000C22
:100A4000110BF701E00FF11F1E161F060CF007C176
:100A500040330CF004C1A82FC42E042E000CDD0876
:100A60005601A80EB11C87FDBA941A141B040CF091
:100A7000F6C02E5F3F4F570197E0A90EB11CB7FE9D
:100A800004C05701BEE0AB0EB11CB3E0B594A7940F
:100A9000BA95E1F747FF0AC0A42FA80FAC9CC0018C
:100AA000AD9C900D1124281B390B40E08A2F0A2E93
:100AB000000C990B840F911D47FD9A95C19714F076
:100AC000A0E3A41BF8A067FD60E0E535F10514F094
:100AD000E4E5F0E09E2FCC85C427C62E062E000C40
:100AE000DD08F601E01BF10B8F014F01F7E08F22CB
:100AF0009924E0E8F0E002C0F595E7958A94E2F7E2
:100B00007E2F17FF02C0095F1F4FF3E01595079571
:100B1000FA95E1F7200F311F542F577081E001C083
:100B2000880F5A95EAF7459545954595F601B4E540
:100B30004B02E00DF11D1124AF0145545E4FD0E092
:100B40002A2EAA0F3308EE24E394BB24D2151304F3
:100B50000CF085C0F9015490F1E0FF121AC0962EF6
:100B60008A01E72F6901991608F057C08E2E85205B
:100B700021F0D8018C90882A8C92E69531F4BFEF51
:100B8000CB1ADB0AF6015490E0E893940F5F1F4FF5
:100B9000EACFF1101CC0782E7094962E8A01E72FB0
:100BA0006901991608F039C08E2E852021F0D801F0
:100BB0008C9087208C92E69531F4BFEFCB1ADB0A3C
:100BC000F6015490E0E893940F5F1F4FEACFF3E0F3
:100BD000FF122CC0782E7094862E8A01972E690100
:100BE0008916D0F4E92DE52141F0D801EC916C2E65
:100BF000682460FE0FC0E82BEC93969439F4BFEFA5
:100C0000CB1ADB0AF6015490E0E89E2E83940F5F26
:100C10001F4FE6CFE721F0CFCE25880F19F44C5AAD
:100C20005F4F81E0DF5F2A0D3B1D90CF962E8A013A
:100C3000E72F6901991688F78E2E852021F0D801BB
:100C40008C9088268C92E69531F4BFEFCB1ADB0AA4
:100C5000F6015490E0E893940F5F1F4FEBCFDF91C4
:100C6000CF911F910F91FF90EF90DF90CF90BF90A9
:100C7000AF909F908F907F906F905F903F902F905C
:100C80000895DC01643570F5403360F590968C91E1
:100C90009097E62F062E000CFF0B242F2595259507
:100CA000259594E52902E00DF11D1124E554FE4F30
:100CB0002081342F37708230B1F4822F90E0032EE0
:100CC00002C0959587950A94E2F78095817081110D
:100CD00014C081E090E001C0880F3A95EAF7809552
:100CE000822380830895833091F71C968C918170C4
:100CF0006427609561708613ECCF81E090E001C0BD
:100D0000880F3A95EAF7822BECCFAF92BF92CF9241
:100D1000DF92EF92FF920F931F93CF93DF93182FE1
:100D2000062FC0E0D3E08AEFD82E9EEFE92E842F65
:100D30008470C82E842F8270B82E842F8870A82EBD
:100D40004170F42ECF5F8C2F880F8F5FE80ECC2080
:100D500081F0402F4D0F612F6C0F89E094E00E94CD
:100D60004106402F4C0F6D2F610F89E094E00E94E7
:100D70004106BB2081F0402F4D1B612F6C0F89E095
:100D800094E00E944106402F4C1B6D2F610F89E0BB
:100D900094E00E944106AA2081F0402F4C0F612F61
:100DA0006D1B89E094E00E944106402F4D0F612F9A
:100DB0006C1B89E094E00E944106FF2081F0402FE7
:100DC0004C1B612F6D1B89E094E00E944106402F6F
:100DD0004D1B612F6C1B89E094E00E944106CD17EA
:100DE0003CF4E7FCAFCFD150D394D394ED0CAACF11
:100DF000DF91CF911F910F91FF90EF90DF90CF90F7
:100E0000BF90AF9008950F931F93CF93DF93D82F88
:100E1000162F042FC0E0C0174CF4412F4C0F6D2F3C
:100E200089E094E00E944106CF5FF5CFDF91CF913A
:100E30001F910F9108958F929F92AF92BF92CF9280
:100E4000DF92EF92FF920F931F93CF93DF93082FC0
:100E5000A62E842E922E83E0F82ED0E0C3E09AEFE7
:100E6000E92E1EEFBB24B394B20EDF5F1F0D4C2F93
:100E7000440F6A2D6C1BC92CCF0CDA2CDD1A81E0D3
:100E80004B0D881215C0802F8D0F0E9403074C2D2B
:100E90006D2D8C2F800F0E940307DC1794F417FD33
:100EA00004C0C150E394E3941E0DF394F394DDCF9A
:100EB000802F8D1B0E9403074C2D6D2D802F8C1BC6
:100EC000EACFDF91CF911F910F91FF90EF90DF90CC
:100ED000CF90BF90AF909F908F900895CF92DF9268
:100EE000EF92FF920F931F93CF93DF937C01D62E47
:100EF000C22EC42F002E000C110B040F111D47FD34
:100F00001A958C2F0C2E000C990B801791076CF4FE
:100F1000D0E0DC1544F46D2D6D0F4C2FC7010E94FD
:100F20004106DF5FF6CFCF5FECCFDF91CF911F910E
:100F30000F91FF90EF90DF90CF900895CF92DF92C6
:100F4000EF92FF920F93CF93DF936C01EB01F12CA3
:100F5000E12CF60180819181E816F90694F468810C
:100F60007981693FFFEF7F0739F003E022E04A8192
:100F700089E094E00E946E078FEFE81AF80A249641
:100F8000E8CFDF91CF910F91FF90EF90DF90CF905E
:100F900008954F925F926F927F928F929F92AF923D
:100FA000BF92CF92DF92EF92FF920F931F93CF9356
:100FB000DF93EC016A3049F428859D818A85299F59
:100FC000800D11248A871986A6C06D3009F4A3C04C
:100FD000898483E588150CF487C0DA848FE28D1547
:100FE0000CF482C018852C812150330B129FC00154
:100FF000139F900D1124880D911D87FC9A9518164A
:1010000019060CF071C02D818D2D0D2C000C990B43
:10101000129F800D911D1124181619060CF064C042
:1010200078A0C82C912CE62EF12C292D092C000C2F
:10103000330B8C8190E0281739070CF054C00197CE
:10104000E0E02817390771F0E89EF001E99EF00D05
:10105000F89EF00D11242E0F3F1FEE8DFF8DE20F35
:10106000F31FE4915D2C612C492C480C2D81862DB9
:10107000062C000C990B2817190691F18CF1AE2E55
:10108000B12CE0FF16C0113061F4462D4D0D642DDA
:10109000CE010E944106F501F595E7956394510E46
:1010A000E5CF012F212F452D6C2DCE010E946E071B
:1010B000F2CF89A198A1891771F388A3113041F467
:1010C000462D4D0D642DCE010E94410678A2E3CF3E
:1010D000012F212F452D6C2DCE010E946E07F6CFDA
:1010E0009394C10EA2CF78A228853C818985239F45
:1010F000800D112489879F81992369F0082E000CA7
:10110000990B44E550E0239F4019510911244817D9
:1011100059070CF452CF81E090E0DF91CF911F91FD
:101120000F91FF90EF90DF90CF90BF90AF909F9086
:101130008F907F906F905F904F900895682F89E017
:1011400094E00C94C9070F931F93CF93DF938C0106
:10115000D0E0C0E0F801EC0FFD1F6491662341F080
:1011600089E094E00E94C907892B11F02196F2CF03
:10117000CE01DF91CF911F910F910895089590E0D6
:1011800080E00895FC0101900020E9F73197AF015C
:10119000481B590BBC0189E094E00C9451028F92DA
:1011A0009F92AF92BF920F931F93CF93DF93CDB7D0
:1011B000DEB7A1970FB6F894DEBF0FBECDBF19A260
:1011C000423008F44AE08E010F5D1F4F842E912CAF
:1011D000B12CA12CA50194010E944A16E62FB90159
:1011E000CA01EA30F4F4E05DD801EE938D01232BBF
:1011F000242B252B79F790E080E0109719F0CD0192
:101200000E94C208A1960FB6F894DEBF0FBECDBFF4
:10121000DF91CF911F910F91BF90AF909F908F90D2
:101220000895E95CE1CFCF93DF930E94A308EC011E
:1012300085E291E00E94C2088C0F9D1FDF91CF9143
:101240000895EBEBF1E088EF91E0DF019C011D9246
:1012500021503040E1F7109212041092130485E8F7
:1012600093E00E94A3080E94F4028CB583608CBDB9
:101270008DB58E7F8DBD88E291E0EEEFFFE309959D
:1012800010920F0480E693E00E9413090E94F4027A
:101290000E946B038091D003813039F062E370E0EB
:1012A00080E090E00E947D04F3CF08954F925F921A
:1012B0006F927F928F929F92AF92BF92CF92DF9266
:1012C000EF92FF920F931F93CF93DF9300D000D044
:1012D0001F92CDB7DEB740913B0450913C04609122
:1012E0003D0470913E042FB7F8948091B70190911E
:1012F000B801A091B901B091BA012FBF481B590B99
:101300006A0B7B0B80913A0490E0B0E0A0E0009182
:101310003604109137042091380430913904841731
:101320009507A607B70708F0CEC0011511052105DE
:10133000310509F4C8C02FB7F8948091B701909196
:10134000B801A091B901B091BA012FBF20913A0420
:10135000820F911DA11DB11D80933B0490933C040D
:10136000A0933D04B0933E0480912C0490912D04F1
:10137000A0912E04B0912F040196A11DB11D809360
:101380002C0490932D04A0932E04B0932F0410925C
:1013900036041092370410923804109239040E94D7
:1013A0005804609332047093330480933404909310
:1013B00035048091BC039091BD032FE0289FA001CC
:1013C000299F500D11245A83498385E10E940F04FF
:1013D000A981BA818A0F9B1FB4E096958795BA952B
:1013E000E1F79093BD038093BC032091BB032223BC
:1013F00009F448C06091BF03262F30E050E040E080
:1014000029833A834B835C83C090C003D12CF12C99
:10141000E12C4091C3035091C4034A01B12CA12C8B
:101420002091C1033091C2032901712C612C8217D4
:10143000930728F09C014817590708F49A0150E0D7
:1014400040E0241935094609570969817A818B8161
:101450009C816C197D098E099F090E94A517A50121
:10146000940124193509460957090E941816C20E1D
:10147000D31EE41EF51EC092BE036C2D70E085E005
:101480000E94B2030E946B038091D7039091D8030E
:10149000892B11F00E94210481E00F900F900F9092
:1014A0000F900F90DF91CF911F910F91FF90EF90D0
:1014B000DF90CF90BF90AF909F908F907F906F9074
:1014C0005F904F900895012B022B032B09F075C1FB
:1014D0008091D20381508E3F28F58091D1038130D5
:1014E00009F58091E5038F5F6091E60387FD09C0F0
:1014F000082E000C990B70E06F5F7F4F0E94C117A0
:10150000682F6093E50389E593E09093400480930E
:101510003F0488E48093410466E473E080EE93E046
:101520000E94BE048091D20381508E3F70F480915E
:10153000D003813009F021C38CE493E09093400400
:1015400080933F0488E4809341048091E0038823E2
:1015500031F08091E103811102C00E94D604809194
:10156000E103882309F43EC08091F50381113AC05C
:101570008091ED039091EE03E091F203F091F3037B
:10158000EE0FFF1FE80FF91F25913491211531054A
:1015900009F46AC1A9015695479556954795842F38
:1015A00020FD0DC18F738093F4038091E403839F2A
:1015B000802D11248093F5031092050410920404E9
:1015C0001092030481E08093F7038093B601109298
:1015D000F8038091F2039091F30301969093F30343
:1015E0008093F2038091F703882341F08091F50303
:1015F000811156C180EE93E00E94AF0480914104B6
:10160000882309F490C08C3008F034C23CE0381BC9
:101610003983FF24F394F09211041092290410925C
:101620002A0440910E044D831981141B042F0D5F71
:101630004DE2410F2EE463E089E094E00E946E07E2
:101640005D8154505D83105D252F41E0612F80E561
:101650000E941B072D8142E0612F83E00E941B073F
:10166000F0922904F0922A0400910E0483E0800F86
:101670008D831981101B9DE2E92EE10E23E0F22EED
:101680004E2D6F2D89E094E00E944106F39491E580
:10169000F912F6CFAD81AE0DAD83EA2EEA9483E068
:1016A000F82E4E2D6F2D89E094E00E944106F394B0
:1016B000B1E5FB12F6CF0350105D402F612F80E0A3
:1016C0000E940307402F612F83E50E94030741E03A
:1016D000612F83E00E94850642E0612F80E50E9431
:1016E00085062D8124502D8344E0622F80E50E94E1
:1016F000850648E06D8183E00E94850684E0809342
:10170000120480910E043981381B315D309313042B
:1017100080913F04909140040E94A308809141046D
:101720008150809341048091D7039091D803892BF5
:10173000E1F041E04093290410922A0490910D04B5
:1017400085E5891B80931204109213048091D403C1
:10175000813009F4F7C108F48FC19091D30385302B
:1017600008F006C28B5F9111FEC10E94F4028091C5
:101770000F0481110EC0EBEBF1E088EF91E0DF0187
:101780009C011D9221503040E1F7109212041092FA
:1017900013040E94580460933604709337048093B6
:1017A0003804909339042091320430913304621B41
:1017B000730B709331046093300480E06ECEC901E6
:1017C000E6E096958795EA95E1F78F71932F9695C8
:1017D0009695969590514F70423099F1D0F44423EC
:1017E00009F43CC04130B9F1E091F203F091F30308
:1017F0003196F093F303E093F203CF01880F991F22
:10180000E091ED03F091EE03E80FF91F259134917B
:10181000C1CE433061F0443039F72091E403289F72
:10182000802D11248093FD039093FE03DDCF209142
:10183000E403289F802D11248093FB039093FC03E5
:10184000D3CF2091E403289F802D11248093F903A6
:101850009093FA03C9CF0E942502C6CF8B3008F0BF
:101860008AE08093F603C0CF2091F103211112C0CA
:101870001092E1038091E003811105C080EE93E0B6
:101880000E94AF04AFCE0E94D6048091F2039091E3
:10189000F303B4CF1092F3031092F203FC01B6CF1E
:1018A00081508093F50380910504811142C02091FD
:1018B0000304309104042F5F3F4FC901880F991F23
:1018C000E091FF03F0910004E80FF91F85919491D6
:1018D000482F477040930604492F469546954093FC
:1018E0000704AC0164E0569547956A95E1F74F739C
:1018F0009091E403499F402D11244093050483FBFC
:10190000882780F98093B501309304042093030461
:101910008091010490E02817390758F020910204C3
:10192000222309F49FC0821B9109909304048093A1
:101930000304809105048150809305048091F8038D
:1019400031E0380F3093F8034091F40320910704FD
:10195000240F8091EC03280F2093E2036091FB0396
:10196000662371F070E0832F032E000C990B0E9408
:10197000C1178091FC03869F200D11242093E20360
:101980008091E20390E0849664E270E00E94C117C7
:101990008093E2032091F6032093E3036091F9031F
:1019A000662381F0062E000C770B832F032E000C8C
:1019B000990B0E94C1178091FA03869F200D112474
:1019C0002093E3036091FD036623A1F0832F330F7F
:1019D000990B70E00E94C117CB0162E070E00E9499
:1019E000C1172091FE039091E303289F900D1124CD
:1019F0009093E3034F3309F43AC08091E3038A30B4
:101A00000CF089E087FD80E08093E303F894E09197
:101A1000E203F0E0EE5DFC4FE491E093B40120912D
:101A200008043091E303320390011124409106042D
:101A30004203C001439F900D11242091E50302C091
:101A4000880F991F2A95E2F797FF02C081589F4F90
:101A5000880F892F881F990B8093B3018093B2015F
:101A60007894CCCD80EE93E00E94AF0462CF1092C8
:101A7000E303CCCF1982CDCD80EE93E00E94AF047A
:101A80001092E10351E050931104E0EAF1E0E49197
:101A9000EF5FE0930D04E1EAF1E0E491EF5FE093A2
:101AA0000E0482EA91E09093280480932704109218
:101AB000D8031092D70310920F0488EA89830E94FA
:101AC00056098823E1F382E991E00E94A30860911E
:101AD000D5037091D60390E080E04AE00E94CF08E1
:101AE0008DE791E00E94A308698162956F7070E0B4
:101AF00090E080E04AE00E94CF0882E791E00E94F7
:101B0000A3088091D003813009F42FCE99819150A0
:101B100099839111D4CF70E060E085E00E94B20318
:101B200083B7817F846083BF83B7816083BF83B7BE
:101B3000816083BF889583B78E7F83BF83B78E7F95
:101B400083BFBDCF80912C0490912D04A0912E04D1
:101B5000B0912F048F709927AA27BB270897A1055A
:101B6000B10520F487E00E949E08FFCD88E7FBCFF7
:101B7000992309F4FACD8FE2F6CF893209F0E5CC4A
:101B80000E942109E2CCCF92DF92EF92FF921F9345
:101B9000CF93DF9320912B04222309F4BCC0EC01E6
:101BA00081E0809311041092100410920F0410929F
:101BB000D3038093290480932A041CE00E945609D1
:101BC0008823E1F3FE01849122E031E040E060E00F
:101BD00089E094E00E94010510921204109313040E
:101BE000CE010E94A30880910D04982F990F990FA0
:101BF000891B8D5A8093120480910E04982F990F9F
:101C0000990F891B835D8093130480912C0484FFBA
:101C10006AC08EEF90E00E94130980910D04982F06
:101C2000990F990F891B8D5A809312048091130488
:101C30008F5F809313048091E503882309F456C0D5
:101C400086EF90E00E94130980910D04982F990F60
:101C5000990F891B8D5A80931204809113048F5F12
:101C6000809313048EEE90E00E9413098091D103BB
:101C70008130C1F48091E5038F5F6091E60387FDB9
:101C800009C0082E000C990B70E06F5F7F4F0E9417
:101C9000C117682F6093E50366E473E080EE93E07C
:101CA0000E94BE048091D003813019F180912B04F1
:101CB000482F50E070E060E0C0902C04D0902D04DC
:101CC000E0902E04F0902F04C416D506E606F70621
:101CD00010F08F3F71F48091D203813009F06ECF04
:101CE0000E9421096BCF8AEF90E095CF82EF90E0C0
:101CF000A9CF8FEF80932B0480EE93E00E94AF0476
:101D00001092E10366EE70E080EE93E00E94BE0464
:101D100081E08093D303DF91CF911F91FF90EF90EB
:101D2000DF90CF9008951F920F920FB60F9211245B
:101D30002F933F938F939F93AF93BF938091B7015E
:101D40009091B801A091B901B091BA0130913101DF
:101D500023E0230F2D3758F50196A11DB11D2093C7
:101D600031018093B7019093B801A093B901B0936A
:101D7000BA018091320190913301A0913401B09168
:101D800035010196A11DB11D80933201909333015D
:101D9000A0933401B0933501BF91AF919F918F9182
:101DA0003F912F910F900FBE0F901F90189526E82E
:101DB000230F0296A11DB11DD2CF1F920F920FB615
:101DC0000F9211242F936F937F938F939F93609122
:101DD000B301662349F1809130018F5F8093300118
:101DE0009091B401891700F12091B60181E0282774
:101DF0002093B601109230018091B501882369F0DB
:101E00008091000193E4899F802D1124895B809348
:101E100000010E94B5179093B2018091B201211187
:101E200001C080E08093B4009F918F917F916F916A
:101E30002F910F900FBE0F901F901895CF93DF93A7
:101E400000D000D0CDB7DEB7789484B5826084BD71
:101E500084B5816084BD85B5826085BD85B58160AE
:101E600085BD80916E00816080936E00109281002C
:101E700080918100826080938100809181008160E7
:101E800080938100809180008160809380008091A8
:101E9000B10084608093B1008091B0008160809334
:101EA000B00080917A00846080937A0080917A00FB
:101EB000826080937A0080917A00816080937A00BA
:101EC00080917A00806880937A001092C10082E34A
:101ED00080933A0481E090E0A0E0B0E08093360483
:101EE00090933704A0933804B09339048FEF809314
:101EF0002B04E0E8F7E7259134912130304C09F0CC
:101F000017C5E6E9F7E7E491E0931404E7E9F7E79A
:101F1000E491E093BF03E8E9F7E7E491E093C003BD
:101F2000E9E9F7E7859194919093C2038093C10307
:101F3000EBE9F7E7859194919093C4038093C303F1
:101F400087E08093E603EEE9F7E7E491E093E503A9
:101F5000EFE9F7E7E491E0932B04E0EAF7E78591F6
:101F600094919093D8038093D703E2EAF7E78591A1
:101F700094919093DA038093D903E4EAF7E785918B
:101F800094919093DC038093DB03E6EAF7E7859175
:101F900094919093DE038093DD0381E08093BB03F3
:101FA0006FEF70E085E00E94B20388E08093C50384
:101FB00089E08093C60387E08093C70386E080931F
:101FC000C80394E09093C90382E08093CA0381E13F
:101FD0008093CB030E946B038CE39FE09093D60326
:101FE0008093D503A4E0A093D403B1E0B093DF03C2
:101FF0008BE0809317048DE08093160480E180933A
:1020000018048EE080931A048FE080931904B09333
:102010001104B093290410922A04B0931004E0EA4A
:10202000F1E0E491EF5FE0930D04E1EAF1E0E49187
:10203000EF5FE0930E0482EA91E09093280480938E
:102040002704EFB7E983F89480913601811127C006
:10205000E1ECF3E08491E5EDF3E09491E82FF0E01A
:10206000EE0FFF1FEC58FF4FA591B491EC91E923BF
:1020700021F461E08AE00E94A70261E08AE00E9408
:102080002F038CB580618CBD8CB580648CBD61E004
:102090008DE00E942F0361E08BE00E942F0380916E
:1020A00036018F5F80933601F981FFBF8CB58F7D3C
:1020B0008CBD8CB58C7F81608CBD8DB581608DBDF4
:1020C0008CB58C608CBD61E0809117040E942F0359
:1020D00061E0809116040E942F0361E08091180452
:1020E0000E942F0380911A0418161CF461E00E94CC
:1020F0002F038091190418161CF461E00E942F032D
:1021000080911A04181674F460E00E94A7026AE035
:1021100070E080E090E00E947D0461E080911A040C
:102120000E94A70280911604082E000C990BFC0156
:10213000E954FC4FE491F0E0EE0FFF1FE258FF4F2F
:102140002591349130931E0420931D04FC01E55326
:10215000FC4FE491E093240480911704082E000CB6
:10216000990BFC01E954FC4FE491F0E0EE0FFF1FE6
:10217000E258FF4F2591349130931C0420931B04A7
:10218000FC01E553FC4FE491E09323048091190492
:10219000082E000C990BFC01E954FC4FE491F0E08F
:1021A000EE0FFF1FE258FF4F25913491309320042A
:1021B00020931F04FC01E553FC4FE491E0932504B8
:1021C00080911804082E000C990BFC01E954FC4F77
:1021D000E491F0E0EE0FFF1FE258FF4F259134919C
:1021E0003093220420932104FC01E553FC4FE49139
:1021F000E093260481E20E94D50284E10E94D50288
:102200008091140487FF03C08FE7809314048091AA
:10221000140480680E94D50280E20E94D5028CE0FE
:102220000E94D5020E94F40281E08093E40384E0DE
:102230008093080480E790E09093F0038093EF038D
:1022400080E00E94250261E070E083E00E94B2031A
:102250008091B100887F81608093B100F8941092E2
:10226000800010928100109285001092840088E115
:1022700091E090938900809388008091810088602C
:1022800080938100809181008160809381008091A2
:102290006F00826080936F0078948091D703909153
:1022A000D803892B11F00E9421048091D103813041
:1022B00009F46BC38091D403882309F466C368E8EA
:1022C00070E080EE93E00E94BE0486E990E00E94F8
:1022D000C30D10920F042CE631E0A7E54A2EA1E0D1
:1022E0005A2E41E0F20187E090E041930197E9F72F
:1022F00087E0480E511C24153505A1F710924A01BC
:102300001092490189E090E090934C0180934B0139
:1023100082E190E090934E0180934D018BE190E03B
:102320009093500180934F0184E290E0909352018A
:10233000809351018DE290E090935401809353017A
:1023400086E390E0909356018093550122EB31E0B3
:10235000F6E72F2EF1E03F2E89EF9FEFD1018D930D
:102360009C93B4E02B0E311C22153305B9F79093E2
:102370003A018093390190933E0180933D019093FF
:1023800042018093410190934601809345018EE97B
:1023900097E0909338018093370179EF872E992445
:1023A0009A94E9EF6E2E77247A940E945609882336
:1023B00009F487C38091D20381508E3F20F487EDCA
:1023C00090E00E94C30D8091CC0381508E3F08F0B5
:1023D000DFC28091090190910A01181619060CF0CC
:1023E000D7C2019790930A01809309018091070158
:1023F00090910801843191052CF401969093080185
:10240000809307018091D003813019F580910701F5
:10241000909108014497E9F4109208011092070185
:10242000E6E7F1E090E080E020813181293F3F4FF5
:1024300009F0BEC22091090130910A012D5F3F4F82
:102440003183208388589E4FEEE2F0E0DC01ED936B
:10245000FC9380910501909106011816190644F429
:102460008091030190910401181619060CF486C09E
:1024700068EE73E080E090E00E947D0426E230E0A8
:1024800030930A012093090183E090E090930401C6
:10249000809303011092750110927401A2E0B0E0E4
:1024A000B0930201A0930101E5E1F0E0F093060191
:1024B000E093050110927301109272011092710164
:1024C0001092700110926F0110926E0110926D01C6
:1024D00010926C0187E591E041E0FC0130E020E0E2
:1024E00041932F5F3F4F27303105D1F707964816AC
:1024F000590699F710924A011092490129E030E0FB
:1025000030934C0120934B0182E190E090934E0177
:1025100080934D01ABE1B0E0B0935001A0934F0127
:1025200084E290E090935201809351018DE290E01B
:10253000909354018093530186E390E09093560169
:1025400080935501E6E7F1E09182808234962E1661
:102550003F06D1F770923A016092390170923E01C4
:1025600060923D0170924201609241017092460179
:102570006092450188EC90E00E94C30D809170014B
:1025800090917101FC01E95AFE4F208121111BC07D
:10259000FC01E25AFE4F2081211115C0FC01EB59CC
:1025A000FE4F208121110FC0019649E0489F900104
:1025B000499F300D11243093730120937201909341
:1025C00071018093700180916C0190916D01EDE536
:1025D000F1E0E81BF90B208121111DC0E4E6F1E0D8
:1025E000E81BF90B2081211116C0EBE6F1E0E81B96
:1025F000F90B208121110FC0019649E0489F9001FD
:10260000499F300D112430936F0120936E019093F8
:102610006D0180936C0180910101909102018130E4
:10262000910509F4CCC10297F9F4E9E4F1E0819154
:102630009191DF01129701968D939C93B1E0E7355C
:10264000FB07A9F780916E0190916F01469620914A
:10265000490130914A012817390734F081E090E0B0
:1026600090930201809301015EE0E52EF12C68E178
:10267000C62ED12C09E311E01A8309830E94C015EC
:1026800027E030E040E050E00E941816F701E60F26
:10269000F71FE95AFE4F20812223A9F0E981FA8130
:1026A00020813181293F3F4F71F4660F771F675BAF
:1026B0007E4FDB018D919C910496E981FA81918393
:1026C0008083D382C28229813A812C5F3F4F3A8333
:1026D00029832954314091F688E0C81AD10897E03F
:1026E000E91AF108A9EFEA16AFEFFA0619F6E6E7DC
:1026F000F1E0FC83EB83AB81BC818D919C910796CB
:1027000039F0EB81FC8182819381029793838283EC
:10271000AB81BC8112968D919C918D3F9F4F34F47B
:10272000EB81FC8191828082938282822B813C8129
:102730002C5F3F4F3C832B8322153305E1F639E3B1
:10274000E32E31E0F32ED7018D919C91079631F065
:10275000F70182819381029693838283D701129637
:102760008D919C911397C4973CF011969C928E92F8
:1027700013969C928E921297B4E0EB0EF11CE9E452
:10278000EE16E1E0FE06F9F6809174019091750174
:10279000883291050CF033C10196909375018093B6
:1027A00074012FE1C22E21E0D22E27E531E03A83D9
:1027B0002983A980BA8099E4E92E91E0F92E06E7F1
:1027C00011E0D5018C918823A9F1F80180819181D4
:1027D000D7012D913C91A901485F5F4F8417950760
:1027E0004CF50296281739072CF582819381F60162
:1027F00020813181A901485F5F4F84179507D4F488
:10280000039628173907B4F466E473E080EE93E08A
:102810000E94BE04D5011C92809105019091060191
:1028200001979093060180930501F80191828082BF
:10283000938282820C5F1F4F2B813C8120173107CE
:1028400009F0BFCF32E0E30EF11C4FEFA41AB40A37
:1028500087E591E08E159F0509F0B1CF92E0C90E92
:10286000D11CA981BA811796BA83A983E5E2F1E068
:10287000EC15FD0509F09DCFEBEBF1E088EF91E061
:10288000DF019C011D9221503040E1F710921204AB
:1028900010921304E0913701F091380166E771E07E
:1028A0008DE191E00995E0913701F091380169E3FC
:1028B00071E08BE191E0099523EC30E04DE260910D
:1028C000090189E094E00E94010587E5C82E81E0B6
:1028D000D82E1A82198209E411E05601D5018D9192
:1028E0005D01882399F0F801608129813A812130C6
:1028F000310509F4DEC02230310509F4DEC029EBD0
:1029000030E041E089E094E00E9401050E5F1F4F36
:10291000E016F10619F789819A8101969A838983D5
:1029200097E0C90ED11CA981BA811397A1F63DCDBC
:102930009CE3909314041092BF038093C00380E241
:1029400093E09093C2038093C10384ED93E090934E
:10295000C4038093C30387E08093E6038093E50379
:102960008CEA9DE09093D8038093D7038EED9DE091
:102970009093DA038093D90384E79EE09093DC037D
:102980008093DB038CE39FE004CB1092E5039DCCA6
:102990008091CE0381508E3F08F028CD80910901AF
:1029A00090910A018F3491050CF020CD01961ACD3B
:1029B000049634968C33910509F036CD4ACDE9E47E
:1029C000F1E081919191DF01129701978D939C9392
:1029D00021E0E735F207A9F72091720130917301E8
:1029E00081E090E0821B930B2091490130914A01D4
:1029F000281739070CF038CE82E090E031CE809174
:102A0000090190910A01D8012D913C911197A901DA
:102A10004E5F5F4F841795070CF044C0059628174A
:102A200039070CF03FC012968D919C918B970597BA
:102A3000C8F58091030190910401019790930401DE
:102A400080930301109275011092740170923A0103
:102A50006092390170923C0160923B0170923E019C
:102A600060923D017092400160923F01709242017C
:102A7000609241017092440160924301709246015C
:102A800060924501709248016092470168EE73E0E0
:102A900080E090E00E947D04E6E2F0E0F0930A011D
:102AA000E09309010C5F1F4FE016F10609F0A7CF74
:102AB00078CE2FEA30E04AE025CF25EA30E043E146
:102AC00021CF80E090E0892B09F46FCC0E940000B8
:102AD0006CCC10920C0410920B0483E191E0909363
:102AE0000A048093090408958F929F92AF92BF9237
:102AF000CF92DF92EF92FF92CF93DF93EC01688148
:102B000079818A819B81611571058105910521F487
:102B100064E279ED8BE597E02DE133EF41E050E0A1
:102B20000E94181649015A019B01AC01A7EAB1E4C1
:102B30000E9437166B017C01ACEEB4EFA501940145
:102B40000E944516C60ED71EE81EF91EF7FE06C0E7
:102B500081E0C81AD108E10880E8F80AC882D98261
:102B6000EA82FB82C701B6019F77DF91CF91FF9088
:102B7000EF90DF90CF90BF90AF909F908F9008958F
:102B80008F929F92AF92BF92CF92DF92EF92FF927D
:102B900060910B0170910C0180910D0190910E01DB
:102BA000611571058105910521F464E279ED8BE5EC
:102BB00097E02DE133EF41E050E00E941816490103
:102BC0005A019B01AC01A7EAB1E40E9437166B01E0
:102BD0007C01ACEEB4EFA50194010E944516C60E2F
:102BE000D71EE81EF91EF7FE06C081E0C81AD108FC
:102BF000E10880E8F80AC0920B01D0920C01E09243
:102C00000D01F0920E01C701B6019F77FF90EF9082
:102C1000DF90CF90BF90AF909F908F90089560937A
:102C20000B0170930C0180930D0190930E01089598
:102C3000052E97FB1EF400940E942F1657FD07D017
:102C40000E944A1607FC03D04EF40C942F165095A0
:102C50004095309521953F4F4F4F5F4F0895909588
:102C60008095709561957F4F8F4F9F4F08950E947B
:102C70006C16A59F900DB49F900DA49F800D911D83
:102C800011240895B7FF0C9437160E943716821B43
:102C9000930B0895A1E21A2EAA1BBB1BFD010DC0C8
:102CA000AA1FBB1FEE1FFF1FA217B307E407F507FC
:102CB00020F0A21BB30BE40BF50B661F771F881FD8
:102CC000991F1A9469F760957095809590959B016E
:102CD000AC01BD01CF010895A29FB001B39FC00117
:102CE000A39F700D811D1124911DB29F700D811D38
:102CF0001124911D08950E94EF1688F09F5798F0B7
:102D0000B92F9927B751B0F0E1F0660F771F881FF0
:102D1000991F1AF0BA95C9F714C0B13091F00E940A
:102D20000917B1E008950C940917672F782F8827A9
:102D3000B85F39F0B93FCCF3869577956795B39531
:102D4000D9F73EF490958095709561957F4F8F4FA0
:102D50009F4F0895E89409C097FB3EF490958095A5
:102D6000709561957F4F8F4F9F4F9923A9F0F92F51
:102D700096E9BB279395F695879577956795B795CF
:102D8000F111F8CFFAF4BB0F11F460FF1BC06F5FB5
:102D90007F4F8F4F9F4F16C0882311F096E911C0C7
:102DA000772321F09EE8872F762F05C0662371F0E8
:102DB00096E8862F70E060E02AF09A95660F771FFC
:102DC000881FDAF7880F9695879597F9089557FD2C
:102DD0009058440F551F59F05F3F71F04795880F89
:102DE00097FB991F61F09F3F79F087950895121620
:102DF00013061406551FF2CF4695F1DF08C01616CC
:102E000017061806991FF1CF86957105610508947C
:102E10000895E894BB2766277727CB0197F9089593
:102E20000E9423170C9494170E94861738F00E9472
:102E30008D1720F0952311F00C947D170C948317B7
:102E400011240C940A170E94E71670F3959FC1F3A2
:102E5000950F50E0551F629FF001729FBB27F00D48
:102E6000B11D639FAA27F00DB11DAA1F649F66279D
:102E7000B00DA11D661F829F2227B00DA11D621FEC
:102E8000739FB00DA11D621F839FA00D611D221FA6
:102E9000749F3327A00D611D231F849F600D211D8A
:102EA000822F762F6A2F11249F5750409AF0F1F00D
:102EB00088234AF0EE0FFF1FBB1F661F771F881F76
:102EC00091505040A9F79E3F510580F00C947D171A
:102ED0000C940A175F3FE4F3983ED4F386957795F8
:102EE0006795B795F795E7959F5FC1F7FE2B880F1C
:102EF000911D9695879597F9089597F99F6780E8B2
:102F000070E060E008959FEF80EC089500240A943B
:102F10001616170618060906089500240A941216B4
:102F20001306140605060895092E0394000C11F4E7
:102F3000882352F0BB0F40F4BF2B11F460FF04C094
:102F40006F5F7F4F8F4F9F4F0895DB018F939F934C
:102F50000E943716BF91AF91A29F800D911DA39F34
:102F6000900DB29F900D11240895991B79E004C033
:102F7000991F961708F0961B881F7A95C9F78095B8
:102F8000089597FB072E16F4009407D077FD09D01B
:102F90000E94D51707FC05D03EF4909581959F4F70
:102FA0000895709561957F4F0895AA1BBB1B51E151
:102FB00007C0AA1FBB1FA617B70710F0A61BB70BA9
:102FC000881F991F5A95A9F780959095BC01CD014E
:102FD0000895EE0FFF1F0590F491E02D0994F894E9
:022FE000FFCF21
:102FE2000102000300150014002600010000000089
:102FF200000000C9075102BF08BE0804000F00010B
:10300200000A0013000D0A004C4F414445520000D3
:00000001FF
